{
  "contractName": "Box",
  "abi": [
    {
      "anonymous": false,
      "inputs": [
        {
          "indexed": false,
          "internalType": "uint256",
          "name": "newValue",
          "type": "uint256"
        }
      ],
      "name": "ValueChanged",
      "type": "event"
    },
    {
      "inputs": [
        {
          "internalType": "uint256",
          "name": "newValue",
          "type": "uint256"
        }
      ],
      "name": "store",
      "outputs": [],
      "stateMutability": "nonpayable",
      "type": "function"
    },
    {
      "inputs": [],
      "name": "retrieve",
      "outputs": [
        {
          "internalType": "uint256",
          "name": "",
          "type": "uint256"
        }
      ],
      "stateMutability": "view",
      "type": "function",
      "constant": true
    }
  ],
  "bytecode": "0x608060405234801561001057600080fd5b5060fe8061001f6000396000f3fe6080604052348015600f57600080fd5b506004361060325760003560e01c80632e64cec11460375780636057361d146053575b600080fd5b603d607e565b6040518082815260200191505060405180910390f35b607c60048036036020811015606757600080fd5b81019080803590602001909291905050506087565b005b60008054905090565b806000819055507f93fe6d397c74fdf1402a8b72e47b68512f0510d7b98a4bc4cbdf6ac7108b3c59816040518082815260200191505060405180910390a15056fea26469706673582212200f3b04aa662b7693be39bcc87115fd1188d00a655e9359ba1280a7deffd7737864736f6c63430006000033",
  "source": "pragma solidity ^0.6.0;\n\ncontract Box{\n\n    uint256 private value;\n\n    event ValueChanged(uint256 newValue);\n\n    function store(uint256 newValue) public {\n        value = newValue;\n        emit ValueChanged(newValue);\n    }\n\n    function retrieve() public view returns (uint256) {\n        return value;\n    }\n}",
  "sourcePath": "/Users/qiuweihao/Documents/github/demoblockchain/learn/contracts/Box.sol",
  "compiler": {
    "name": "solc",
    "version": "0.6.0+commit.26b70077.Emscripten.clang"
  },
  "schemaVersion": "3.4.3",
  "updatedAt": "2021-10-26T19:16:26.721Z",
  "networkType": "ethereum",
  "devdoc": {
    "methods": {}
  },
  "userdoc": {
    "methods": {}
  }
}