{
  "contractName": "BoxV2",
  "abi": [
    {
      "anonymous": false,
      "inputs": [
        {
          "indexed": false,
          "internalType": "uint256",
          "name": "newValue",
          "type": "uint256"
        }
      ],
      "name": "ValueChanged",
      "type": "event"
    },
    {
      "inputs": [
        {
          "internalType": "uint256",
          "name": "newValue",
          "type": "uint256"
        }
      ],
      "name": "store",
      "outputs": [],
      "stateMutability": "nonpayable",
      "type": "function"
    },
    {
      "inputs": [],
      "name": "retrieve",
      "outputs": [
        {
          "internalType": "uint256",
          "name": "",
          "type": "uint256"
        }
      ],
      "stateMutability": "view",
      "type": "function",
      "constant": true
    },
    {
      "inputs": [],
      "name": "increment",
      "outputs": [],
      "stateMutability": "nonpayable",
      "type": "function"
    }
  ],
  "bytecode": "0x608060405234801561001057600080fd5b50610163806100206000396000f3fe608060405234801561001057600080fd5b50600436106100415760003560e01c80632e64cec1146100465780636057361d14610064578063d09de08a14610092575b600080fd5b61004e61009c565b6040518082815260200191505060405180910390f35b6100906004803603602081101561007a57600080fd5b81019080803590602001909291905050506100a5565b005b61009a6100e6565b005b60008054905090565b806000819055507f93fe6d397c74fdf1402a8b72e47b68512f0510d7b98a4bc4cbdf6ac7108b3c59816040518082815260200191505060405180910390a150565b6001600054016000819055507f93fe6d397c74fdf1402a8b72e47b68512f0510d7b98a4bc4cbdf6ac7108b3c596000546040518082815260200191505060405180910390a156fea264697066735822122098684e8aa36d1888fbb30374a537f34c7480aed60da59984811efaf41292410064736f6c63430006000033",
  "source": "pragma solidity ^0.6.0;\n\ncontract BoxV2{\n\n\n    uint256 private value;\n\n    event ValueChanged(uint256 newValue);\n\n\n    function store(uint256 newValue) public {\n\n        value = newValue;\n        emit ValueChanged(newValue);\n    }\n\n    function retrieve() public view returns (uint256) {\n        return value;\n    }\n\n    function increment() public{\n        value = value +1;\n\n        emit ValueChanged(value);\n    }\n}\n",
  "sourcePath": "/Users/qiuweihao/Documents/github/demoblockchain/learn/contracts/Box2.sol",
  "compiler": {
    "name": "solc",
    "version": "0.6.0+commit.26b70077.Emscripten.clang"
  },
  "schemaVersion": "3.4.3",
  "updatedAt": "2021-10-31T19:23:13.037Z",
  "networkType": "ethereum",
  "devdoc": {
    "methods": {}
  },
  "userdoc": {
    "methods": {}
  }
}